:020000040800F2
:1000000070090020F1010008FD3B0008C73100081D
:10001000F93B0008590A0008E95A000800000000EE
:10002000000000000000000000000000DD4B0008A0
:100030005D0A000800000000013C0008DF4B0008DA
:100040000B0200080B0200080B0200080B0200085C
:100050000B0200080B0200080B0200080B0200084C
:100060000B0200080B0200080B0200080B0200083C
:100070000B0200080B0200080B0200080B0200082C
:100080000B020008000000000B0200080B02000831
:100090000B0200080B0200080B0200080B0200080C
:1000A0000B0200080B0200080B0200080B020008FC
:1000B000654C00080B0200080B0200080B02000848
:1000C0000B0200080B0200080B0200080B020008DC
:1000D0000B0200080B0200080B0200080B020008CC
:1000E0000B0200080B0200080B0200080B020008BC
:1000F0000B0200080B0200080B02000800000000C1
:10010000000000000B020008000000000B020008C5
:100110000B020008000000000B0200080B020008A0
:100120000B0200080B0200080B0200080B0200087B
:100130000B02000800000000000000000B02000895
:100140000B0200080B020008000000000000000085
:10015000000000000000000000000000000000009F
:100160000000000000000000000000000B0200087A
:100170000B0200080000000000000000000000006A
:10018000000000000B02000800000000000000005A
:10019000000000000000000000000000000000005F
:1001A00000000000000000000B0200080B02000825
:1001B0000B0200080B0200080B0200080000000000
:1001C000000000000B02000800000000000000001A
:1001D0000B0200080B020008DFF810D000F0B0FBA3
:1001E00000480047CD7F0008AFF300807009002071
:1001F0000648804706480047FEE7FEE7FEE7FEE7C1
:10020000FEE7FEE7FEE7FEE7FEE7FEE7514C0008EB
:10021000D90100082DE9F05F0546002092469B4673
:1002200088460646814640241BE02846414647460C
:10023000224600F01FFA53465A46C01A914110D385
:1002400011461846224600F006FA2D1A67EB0108FF
:100250004F4622460120002100F0FDF917EB00096E
:100260004E41201EA4F10104DFDC484631462A46F7
:100270004346BDE8F09FD2B201E000F8012B491ED1
:10028000FBD270470022F6E710B513460A46044633
:100290001946FFF7F0FF204610BD2DE9FE4F8046BE
:1002A00081EA0300C00F0C46009021F0004123F0CA
:1002B0000045B8EB0200A94105D2404621469046D0
:1002C0001C460B46024623F00040104347D0270D42
:1002D000C7F30A00C3F30A510290401A0190402864
:1002E0006BDAC3F3130040F4801B0098924620B1F0
:1002F0000023D2EB030A63EB0B0B01985946C0F1C4
:100300004002504600F0A7F906460D4650465946B1
:10031000019A00F0BFF910EB08006141002487EA60
:10032000115284EAE7731A4340D0009A62B3019AEB
:10033000012A4FEA075215DC001B61EB02014FF066
:10034000004202EA0752CDE90042001C41F580114B
:1003500032462B4600F0F6F903B0BDE8F08F404678
:100360002146F9E7001B61EB0201001C41F58013F7
:1003700000185B412018A2F5001747EB030140EA83
:10038000D570B6196D4111E06D084FEA360645EAA1
:10039000C0754FEA0752001B61EB0201001C41F5DA
:1003A000801149084FEA30000019514132462B466E
:1003B00003B0BDE8F04F00F0B6B90098012240004C
:1003C0000023D0EB020263EBE073009821464FEA72
:1003D000E074B8EB000061EB0401E9E783F000434F
:1003E0005BE781F0004158E72DE9FE4F81EA030405
:1003F00004F0004421F0004100944FF0000B23F082
:10040000004350EA01045ED052EA03045BD0C3F318
:100410000A54C1F30A552C44A4F2F3340194A0FB0E
:100420000254C1F3130141F48011C3F3130343F4E5
:10043000801301FB024400FB034E840A970A44EA3E
:10044000815447EA8357A4FB076802958D0A05FB90
:1004500007854FEA932C04FB0C542705029D4FEAB5
:10046000065847EA1637B5EB08056EEB070C870E02
:10047000920E47EA811742EA8312A7FB0201B6EB0C
:100480000B0164EB00042B0D43EA0C335E1844EBC4
:100490001C50DA465146E7FB0201C5F313044FEA4C
:1004A0000B3343EA14534FEA0432019C43EA060338
:1004B000A4F10C040294009CCDE900B400F042F9D0
:1004C00003B0BDE8F08F00200146F9E72DE9F04DBB
:1004D00081EA030404F0004B21F0004514464FF07C
:1004E000000A23F0004150EA050220D054EA01023C
:1004F0001DD0C5F30A570246C5F31303C1F3130019
:10050000C1F30A5640F4801543F48013A7EB0608A4
:10051000101BD64608F2FD3873EB050002D308F134
:10052000010801E092185B41B8F1000F03DA0020E6
:100530000146BDE8F08D00204FF480110646844648
:100540000EE0171B73EB050705D3121B63EB0503C6
:1005500006434CEA010C49084FEA300092185B410F
:1005600050EA0107EDD152EA030012D082EA0400FA
:1005700083EA0501084305D0101BAB4106D20122D6
:10058000002306E000224FF0004302E06FF001027A
:1005900053101AEB06004CEB085110EB0A0041EB2C
:1005A0000B01BDE8F04D00F0BEB80EB5C10F80EAFA
:1005B000E0700844CA07002140F233438DE80E0082
:1005C0000A460B4600F0BEF803B000BD00F0004242
:1005D00030F000400AD0C10D01F56071C0F3160083
:1005E00042EA0151C208400711437047002001460A
:1005F000704701F0004330B421F0004150EA01029D
:1006000006D00A0DA2F56072C1F31301002A02DCC4
:1006100030BC00207047440F44EAC104C100E01818
:1006200030BC00EBC25000F047B830B50B46014675
:1006300000202022012409E021FA02F59D4205D381
:1006400003FA02F5491B04FA02F52844151EA2F12B
:100650000102F1DC30BD202A04DB203A00FA02F16D
:10066000002070479140C2F1200320FA03F31943A0
:1006700090407047202A04DB203A21FA02F0002142
:10068000704721FA02F3D040C2F1200291400843A2
:1006900019467047202A06DBCB17203A41FA02F0B0
:1006A00043EAE07306E041FA02F3D040C2F12002CF
:1006B00091400843194670470029A8BF7047401C65
:1006C000490008BF20F00100704710B4B0FA80FC68
:1006D00000FA0CF050EA010404BF10BC704749B1A5
:1006E000CCF1200421FA04F411FA0CF118BF012115
:1006F00021430843A3EB0C01CB1D4FEA00614FEAF5
:10070000102042BF002010BC704700EBC3501044C3
:100710000029A4BF10BC7047401C490008BF20F04E
:10072000010010BC704710B5141E73F1000408DA04
:10073000401C41F1000192185B411A4301D120F0A5
:10074000010010BD2DE9F04D92469B4611B1B1FA62
:1007500081F202E0B0FA80F220329046FFF77BFF90
:1007600004460F4640EA0A0041EA0B0153465A4646
:10077000084313D0114653EA010019D0C8F14002D2
:100780005046FFF777FF05460E465046594642460B
:10079000FFF761FF084305D0012004E020463946F9
:1007A000BDE8F08D0020054346EAE0762C43374350
:1007B0000A986305E40AA0EB08000022FD0A44EA57
:1007C00047540A3002D500200146E9E70105101917
:1007D0006941DDE9084500196941BDE8F04DA2E72E
:1007E00070B521F0004303430CD0C1F30A55002437
:1007F000D5EB040564EB0403D617AD1AB34102DB55
:100800000020014670BD201841EB025170BD2DE95A
:10081000F04D00231A461B1A8A4103DB00200146D3
:10082000BDE8F08DC1F30A52C1F3130141F4801504
:100830004FF0000BD10702D100186D41521E002766
:10084000044640F2FF11384601EB620A3E468046FC
:10085000024600204FF48011FFF70CFFC2197141CE
:10086000BB1846EB0100B4EB030C75EB000C04D392
:10087000E41A65EB000517460E46241908F101003D
:100880006D4180463428E3DDF91946EB0600091B6B
:10089000A84103D24FF0FF32134601E00022134675
:1008A0001BEB070046EB0A51BDE8F04DFFF73BBFDD
:1008B000C1F30A52C1F3130140F2FF3341F4801136
:1008C0009A4202DA00200146704740F233439A42CE
:1008D000A2F2334202DC5242FFF7CCBEFFF7BBBEAE
:1008E00030B5041E71F1000404DB4FF000444042B7
:1008F00064EB0101141E73F1000405DB1C464FF08C
:100900000043524263EB04038B4208BF824230BD76
:1009100030B5041E71F1000404DB4FF00044404286
:1009200064EB0101141E73F1000405DB1C464FF05B
:100930000043524263EB0403994208BF904230BD2A
:10094000064C074D06E0E06840F0010394E807001C
:1009500098471034AC42F6D3FFF742FCE08300081E
:100960000084000810B5B6217E2005F029F9322058
:1009700000F078F800217C2005F022F90A2000F030
:1009800071F80021412005F01BF9642007F0BCFA42
:10099000AC21402005F014F9642007F0B5FA0421D9
:1009A0007D2005F00DF90A2000F05CF8B621142036
:1009B00005F042F9322000F055F802210F2005F031
:1009C0003BF9642007F0A0FA0021102005F034F96B
:1009D000642007F099FA0021112005F02DF90A2072
:1009E00000F040F805F090F8044654B108E00548DE
:1009F00007F08AFA4FF400614FF0904000F02CF9B4
:100A0000F5E710BDA086010010B5002400224FF4C8
:100A10008051104800F02AF90A2007F075FA0122E7
:100A200011030C4800F022F9FFF79CFF05F05EF877
:100A3000044305F0B7F8044308E0642000F012F81E
:100A400005F054F8044305F0ADF80443002CF4D14C
:100A5000204610BD0004004800BFFEE7704772B694
:100A600000BFFEE770B5044600F006F906462546CD
:100A7000681C10B104480068054400BF00F0FCF891
:100A8000801BA842FAD370BD1000002078B5024642
:100A90000B460021CAE001268E401D6805EA0604C7
:100AA000002C73D01D7905F00305012D04D01D79AC
:100AB00005F00305022D13D190684E000325B540C3
:100AC000A8434E00DD68B54028439060506801257A
:100AD0008D40A8431D79C5F300158D402843506013
:100AE0001D7905F00305032D09D0D0684E000325BC
:100AF000B540A8434E009D68B5402843D0601D799D
:100B000005F00305022D13D1CE0802F1200555F89A
:100B100026004D07EE0E0F25B540A8434E07F60EF2
:100B20001D69B5402843CE0802F1200545F826008E
:100B300010684E000325B540A8431D7905F0030554
:100B40004E00B540284310605D6805F44035002D27
:100B50006BD000BF384D2D6E45F00105364E356621
:100B600035462D6E05F00105009500BF00BF4FEA28
:100B7000B6358E0855F826008D072E0F0F25B54087
:100B8000A843B2F1904F02D100251AE04DE02B4D61
:100B9000AA4201D1012514E0294DAA4201D1022522
:100BA0000FE0284DAA4201D103250AE0264DAA42B2
:100BB00001D1042505E0254DAA4201D1052500E01B
:100BC00006258E07360FB5402843214D8E0845F87F
:100BD0002600204D2868A0435D6805F4801505B106
:100BE00020431C4D28602D1D2868A0435D6805F436
:100BF000001505B12043174D2D1D2860154D2D1FE3
:100C00002868A0435D6805F4003505B12043114D07
:100C10002D1F28602D1F2868A0435D6805F48035CE
:100C200005B120430B4D083D2860491C1D68CD408F
:100C3000002D7FF430AF78BD001002400004004862
:100C400000080048000C004800100048001400484C
:100C5000080001400804014010B5426921EA02037E
:100C600002EA010443EA0443836110BD0AB18161D1
:100C700000E0816270470000014800687047000092
:100C800008000020024692F8410020282DD100BF24
:100C900092F84000012801D102207047012082F81B
:100CA000400000BF242082F841001068006820F056
:100CB0000100136818601068006820F48050136801
:100CC00018601068006808431368186010680068AE
:100CD00040F0010013681860202082F8410000BF36
:100CE000002082F8400000BFD7E70220D5E710B50A
:100CF00002460B4692F8410020282AD100BF92F804
:100D00004000012801D1022010BD012082F84000DE
:100D100000BF242082F841001068006820F0010024
:100D2000146820601068016821F4706141EA0321B1
:100D3000106801601068006840F0010014682060CD
:100D4000202082F8410000BF002082F8400000BF50
:100D5000DAE70220D8E7000010B504460CB90120FC
:100D600010BD94F8410028B9002084F840002046C6
:100D700000F0F0F9242084F841002068006820F099
:100D8000010021680860606820F0706021680861D7
:100D90002068806820F4004021688860E0680128AD
:100DA00005D1A06840F400402168886004E0A06894
:100DB00040F4044021688860E068022802D1800283
:100DC00021684860206840681349084321684860EA
:100DD0002068C06820F400402168C860D4E904019C
:100DE0000843A16940EA01202168C860D4E90701ED
:100DF0000843216808602068006840F0010021680D
:100E0000086000206064202084F8410000202063F6
:100E100084F8420000BFA3E7008000022DE9FC5FD8
:100E20000446894692469B46DDE90C780E9E94F86E
:100E3000410020287ED117B1B8F1000F05D14FF441
:100E4000007060640120BDE8FC9F00BF94F8400082
:100E5000012801D10220F6E7012084F8400000BFFC
:100E6000FFF70AFF054619230122D103204600950A
:100E700002F0FCFA08B10120E5E7222084F84100E5
:100E8000402084F84200002060646762A4F82A8051
:100E900060635B46524649462046CDE9006502F054
:100EA0004DFA30B100BF002084F8400000BF01209F
:100EB000C9E7608DFF280CD9FF2020853D480090B0
:100EC00094F828204FF080734946204602F0B2FA89
:100ED0000BE0608D20853748009094F828204FF073
:100EE00000734946204602F0A5FA00BF33460022AF
:100EF00004212046009502F0B9FA08B10120A2E7CA
:100F00002068406A616A0870606A401C6062208DD7
:100F1000401E2085608D401E6085608D48B3208D09
:100F200038BB3346002280212046009502F09EFA0D
:100F300018B100E03CE0012085E7608DFF280CD966
:100F4000FF2020850020009094F828204FF0807327
:100F50004946204602F06EFA0BE0608D20850020A5
:100F6000009094F828204FF000734946204602F084
:100F700061FA608D0028B9D12A463146204602F038
:100F8000A4FA08B101205EE720202168C86120682A
:100F900040680949084021684860202084F84100E1
:100FA000002084F8420000BF84F8400000BF4AE7F8
:100FB000022048E70024008000E800FE2DE9FC5FE5
:100FC0000446894692469B46DDE90C780E9E94F8CD
:100FD000410020287DD117B1B8F1000F05D14FF4A1
:100FE000007060640120BDE8FC9F00BF94F84000E1
:100FF000012801D10220F6E7012084F8400000BF5B
:10100000FFF73AFE054619230122D1032046009539
:1010100002F02CFA08B10120E5E7212084F8410014
:10102000402084F84200002060646762A4F82A80AF
:1010300060635B46524649462046CDE9006502F0B2
:10104000BBF930B100BF002084F8400000BF012090
:10105000C9E7608DFF280CD9FF2020850020009073
:1010600094F828204FF080734946204602F0E2F9B8
:101070000BE0608D20850020009094F828204FF030
:1010800000734946204602F0D5F900BF2A46314692
:10109000204602F045FA08B10120A4E7606A007812
:1010A00021688862606A401C6062608D401E6085B5
:1010B000208D401E2085608D40B3208D30BB33468F
:1010C000002280212046009502F0D0F910B10120C5
:1010D00089E73AE0608DFF280CD9FF2020850020A9
:1010E000009094F828204FF080734946204602F083
:1010F000A1F90BE0608D20850020009094F8282055
:101100004FF000734946204602F094F9608D0028A4
:10111000BCD12A463146204602F0D7F908B1012059
:1011200061E720202168C8612068406808490840BC
:1011300021684860202084F84100002084F84200A3
:1011400000BF84F8400000BF4DE702204BE70000DD
:1011500000E800FE10B598B00446142113A8FFF76C
:1011600091F8442102A8FFF78DF82A4920688842A7
:101170004ED1402002900020089002A800F0B6F95D
:1011800008B1FFF76CFC00BF2348C06C40F00100C1
:101190002149C8640846C06C00F00100019000BFFE
:1011A00000BF00BF0846C06C40F00200C86408469B
:1011B000C06C00F00200019000BF00BF4FF400407F
:1011C0001390122014900020159016900420179070
:1011D00013A94FF09040FFF759FC80201390122084
:1011E00014900020159016900420179013A90B4816
:1011F000FFF74CFC00BF0848806D40F40010064922
:1012000088650846806D00F40010019000BF00BFA3
:1012100018B010BD00540040001002400004004807
:101220000348006803490968084401490860704799
:10123000080000201000002010B50024032000F05A
:10124000ABF80F2000F008F808B1012401E000F02D
:101250002FF8204610BD000070B504460025114847
:101260000068D8B10F4800684FF47A71B1FBF0F014
:101270000D490968B1FBF0F6304601F03FFB58B963
:10128000102C07D200222146501E00F047F80748D4
:10129000046004E0012502E0012500E00125284664
:1012A00070BD000010000020000000200C00002095
:1012B00008B500BF0E48006E40F001000C490866FA
:1012C0000846006E00F00100009000BF00BF00BFA4
:1012D0000846806D40F0805088650846806D00F0BB
:1012E0008050009000BF00BF00F0F6F808BD00007D
:1012F000001002400146084600280DDB00BF00BF79
:1013000000F01F0301229A4043099B0003F1E023F0
:10131000C3F8002100BF00BF00BF70472DE9F05F98
:1013200080460D46164604F0EFFC074639462A462D
:10133000334601F00700C0F1070ABAF1040F02D9E1
:101340004FF0040A01E0C0F1070AD14600F1040A97
:10135000BAF1070F02D24FF0000A01E0A0F1030A30
:10136000D4464FF0010A0AFA09FAAAF1010A0AEA78
:10137000020A0AFA0CFA4FF0010B0BFA0CFBABF164
:10138000010B0BEA030B4AEA0B042146404604F02A
:10139000C3FCBDE8F09F000000BF00F00702064B51
:1013A00019684FF6FF031940044B0B4343EA02212F
:1013B000014B196000BF70470CED00E00000FA051A
:1013C00002468ABB4148006800F4C060B0F5806FF7
:1013D0002BD13E488030006820F480703B4BC3F82E
:1013E00080001846006820F4C06040F40070186067
:1013F0003748006832235843364BB0FBF3F0411CAA
:1014000000E0491E3148406900F48060B0F5806F0B
:1014100001D10029F5D12D48406900F48060B0F574
:10142000806F51D10320704708E028488030006861
:1014300020F48070254BC3F8800045E0B2F5007FB2
:101440003AD12248006800F4C060B0F5806F2AD11C
:101450001E488030006840F480701C4BC3F8800048
:101460001846006820F4C06040F400701860184806
:10147000006832235843174BB0FBF3F0411C00E0E7
:10148000491E1248406900F48060B0F5806F01D1B8
:101490000029F5D10D48406900F48060B0F5806FF7
:1014A00012D10320BFE709488030006840F4807003
:1014B000064BC3F8800007E00448006820F4C060D1
:1014C00040F48060014B18600020ACE700700040E1
:1014D0000000002040420F000348806840F4804034
:1014E0000149886070470000007000402DE9F84312
:1014F00004460027B846206800F40020B0F5002F0D
:1015000073D1B946D348806D00F0805078B900BFE0
:10151000D048806D40F08050CE4988650846806D87
:1015200000F08050009000BF00BF4FF00109CA4892
:10153000006840F48070C8490860FFF79DFB0646CC
:1015400006E0FFF799FB801B022801D9032705E07D
:10155000C148006800F480700028F2D000BF002F5E
:1015600046D1BC489030006800F44075CDB1206C85
:10157000A84216D0B7489030006820F44075B548AE
:10158000D0F8900040F48030B249C1F8900008468D
:10159000D0F8900020F48030C1F890000846C0F8E0
:1015A000905005F00100A0B1FFF766FB064608E089
:1015B000FFF762FB801B41F28831884201D9032783
:1015C00006E0A4489030006800F002000028EFD048
:1015D00000BF5FB99F489030006820F44070216CD4
:1015E00008439C49C1F8900003E00CE0B84600E0D5
:1015F000B846B9F1010F05D19648806D20F08050B2
:101600009449886500BF207800F0010048B19148F6
:101610008830006820F00300616808438D49C1F8F4
:101620008800207800F00200022809D1894888301B
:10163000006820F00C00A16808438649C1F88800C2
:10164000207800F00400042809D18248883000681E
:1016500020F03000E16808437E49C1F88800207816
:1016600000F00800082809D17A488830006820F086
:10167000C000216908437749C1F88800207800F04C
:101680002000202809D173488830006820F4406089
:10169000616908436F49C1F88800207800F0400074
:1016A000402809D16B488830006820F44050A16977
:1016B00008436849C1F88800207800F0800080283D
:1016C00009D164488830006820F44040E16908434B
:1016D0006049C1F88800208800F48070B0F5807FF0
:1016E00009D15C488830006820F44030216A084302
:1016F0005849C1F88800208800F40070B0F5007FD8
:1017000009D154488830006820F44020616A0843B9
:101710005049C1F88800208800F48060B0F5806FDF
:1017200013D14C488830006820F44010A16A084367
:10173000484988310860A06AB0F5801F05D1454846
:10174000C06840F480104349C860208800F40060FD
:10175000B0F5006F13D13F488830006820F4400096
:10176000E16A08433B4988310860E06AB0F5800FC0
:1017700005D13848C06840F480103649C8602088D8
:1017800000F48050B0F5805F13D132488830006893
:1017900020F04070216B08432E4988310860206B8F
:1017A000B0F1807F05D12B48C06840F480102949F2
:1017B000C860208800F40050B0F5005F13D12548C0
:1017C0008830006820F04060616B0843214988310F
:1017D0000860606BB0F1006F05D11E48C06840F42E
:1017E00080101C49C860208800F48040B0F5804F0C
:1017F00013D118488830006820F04060A16B08437E
:10180000144988310860A06BB0F1006F05D1114810
:10181000C06840F480100F49C860208800F4004080
:10182000B0F5004F13D10B488830006820F04050CD
:10183000E16B0843074988310860E06BB0F1805FD5
:1018400005D10448C06840F480300249C860404671
:10185000BDE8F88300100240007000402DE9F0411F
:1018600004460D464FF0000814B90120BDE8F08190
:101870007D48006800F00F00A8420ED27A48006848
:1018800020F00F002843784908600846006800F0FF
:101890000F00A84201D00120E8E7207800F0010005
:1018A000002864D06068032823D17048006800F0E5
:1018B000007008B90120D9E702F088FB06466C48A1
:1018C000864237D96948806800F0F00030B120784E
:1018D00000F0020002282DD1A06858BB6348806840
:1018E00020F0F00040F08000604988604FF08008F0
:1018F00020E06068022806D15C48006800F40030EF
:1019000040B90120B2E75948006800F4806008B986
:101910000120ABE700F0DEF806465548864209D9BB
:101920005248806820F0F00040F080004F49886005
:101930004FF080084D48806820F00300616808433C
:101940004A498860FFF798F9074608E0FFF794F9DD
:10195000C01B41F28831884201D9032086E7434801
:10196000806800F00C006168B0EB810FEED1207848
:1019700000F00200022820D1207800F004000428A2
:1019800005D13A48806840F4E060384988602078A2
:1019900000F00800082807D13448806820F460501F
:1019A00040F4E060314988603048806820F0F00001
:1019B000A16808432D49886008E0B8F1800F05D17F
:1019C0002A48806820F0F00028498860264800688E
:1019D00000F00F00A84219D92348006820F00F003A
:1019E000284321490860FFF747F9074608E0FFF759
:1019F00043F9C01B41F28831884201D9032035E701
:101A00001948006800F00F00A842F0D1207800F0DB
:101A10000400042807D11548806820F4E060E168DC
:101A2000084312498860207800F00800082808D18F
:101A30000E48806820F46050216940EAC1000B49DB
:101A4000886000F047F809498968C1F30311094A21
:101A5000515C01F01F01C840074908600748006851
:101A6000FFF7FAFB02E700000020024000100240EE
:101A700000B4C40426820008000000200C000020EE
:101A800001480068704700000000002000B5FFF723
:101A9000F7FF05498968C1F30221044A515C01F04E
:101AA0001F01C84000BD000000100240368200083F
:101AB00000B5FFF7E5FF05498968C1F3C221044A73
:101AC000515C01F01F01C84000BD00000010024041
:101AD0003682000870B5224DAD6805F00C05042D66
:101AE00001D120483AE01E4DAD6805F00C05082DE7
:101AF00001D11D4832E01A4DAD6805F00C050C2DE2
:101B00002BD1174DED6805F00304154DED68C5F3B5
:101B100003156A1C022C0CD0032C09D1124DB5FB05
:101B2000F2F50F4EF668C6F3062605FB06F10AE04D
:101B300000BF0C4DB5FBF2F5094EF668C6F306265C
:101B400005FB06F100BF00BF054DED68C5F341651B
:101B50006D1C6B00B1FBF3F000E0002070BD0000D5
:101B6000001002400024F40000127A002DE9F8432E
:101B7000044614B90120BDE8F883207800F0010084
:101B8000002865D0FC48806800F00C07FA48C0685F
:101B900000F003060C2F01D1032E01D0082F0AD12B
:101BA000F548006800F40030002851D06068002833
:101BB0004ED10120DFE700BF6068B0F5803F06D15D
:101BC000ED48006840F48030EB4908601AE0606836
:101BD000B0F5A02F0BD1E848006840F48020E6491A
:101BE00008600846006840F4803008600AE0E24877
:101BF000006820F48030E04908600846006820F45E
:101C00008020086000BF606888B1FFF735F805469E
:101C100006E0FFF731F8401B642801D90320AAE74A
:101C2000D548006800F400300028F2D010E0FFF73B
:101C300023F8054606E0FFF71FF8401B642801D98A
:101C4000032098E7CC48006800F400300028F2D167
:101C5000207800F00200022860D1C748806800F0B8
:101C60000C07C548C06800F003060C2F01D1022EF6
:101C700001D0042F18D1C048006800F4806018B16A
:101C8000E06808B9012076E7BB48406820F0FE40D4
:101C9000217C40EA0160B8494860B8480068FFF715
:101CA000DBFA18B3012066E7E06800B3B2480068C9
:101CB00040F48070B0490860FEF7DEFF054606E09C
:101CC000FEF7DAFF401B022801D9032053E7AA4898
:101CD000006800F480600028F2D0A748406820F037
:101CE000FE40217C40EA0160A349486016E0A2481A
:101CF000006820F48070A0490860FEF7BDFF05462B
:101D000006E0FEF7B9FF401B022801D9032032E7A5
:101D10009948006800F480600028F2D1207800F033
:101D20000800082836D16069D0B193489430006823
:101D300040F001009049C1F89400FEF79DFF054670
:101D400006E0FEF799FF401B022801D9032012E7A5
:101D500089489430006800F002000028F1D019E0B2
:101D600085489430006820F001008349C1F8940050
:101D7000FEF782FF054606E0FEF77EFF401B0228C5
:101D800001D90320F7E67C489430006800F0020097
:101D90000028F1D1207800F00400042872D14FF01F
:101DA00000087548806D012121EA107078B100BFEC
:101DB0007148806D40F080506F4988650846806D9D
:101DC00000F08050009000BF00BF4FF001086C4849
:101DD000006800F48070B0B96948006840F4807011
:101DE00067490860FEF748FF054606E0FEF744FF36
:101DF000401B022801D90320BDE66148006800F4B9
:101E000080700028F2D000BFA068012808D15A488D
:101E10009030006840F001005749C1F8900021E07F
:101E2000A06805280FD154489030006840F00400A5
:101E30005149C1F890000846D0F8900040F00100E8
:101E4000C1F890000EE04C489030006820F001008E
:101E50004949C1F890000846D0F8900020F00400ED
:101E6000C1F8900000BFA068A8B1FEF705FF0546C5
:101E700009E0FEF701FF401B41F28831884202D998
:101E8000032078E625E03C489030006800F002002E
:101E90000028EED013E0FEF7EFFE054608E0FEF75F
:101EA000EBFE401B41F28831884201D9032062E6F3
:101EB00031489030006800F002000028EFD1B8F1FE
:101EC000010F05D12C48806D20F080502A4988658B
:101ED00000BF207800F02000202836D1A069D0B1C2
:101EE00025489830006840F001002349C1F8980067
:101EF000FEF7C2FE054606E0FEF7BEFE401B0228C6
:101F000001D9032037E61C489830006800F0020031
:101F10000028F1D019E018489830006820F001003E
:101F20001549C1F89800FEF7A7FE054606E0FEF742
:101F3000A3FE401B022801D903201CE60E4898305E
:101F4000006800F002000028F1D1E069002860D0AC
:101F50000948806800F00C000C287FD0E069022856
:101F600058D10548006820F0807003490860FEF7EA
:101F700083FE05460DE00000001002400C0000202A
:101F800000700040FEF778FE401B022801D90320B4
:101F9000F1E54D48006800F000700028F2D1D4E966
:101FA0000810401E41EA0011A06A41EA0021208E7B
:101FB0000122C2EB500041EA40513420005DC2EBE7
:101FC000500041EA40612C20005D41EAC0603E497A
:101FD000C9683E4A114008433B49C860084600684A
:101FE00040F0807008600846C06840F08070C860AB
:101FF000FEF742FE054606E0FEF73EFE401B0228C5
:1020000001D90320B7E53048006800F000700028CF
:10201000F2D056E02C48006820F080702A49086011
:102020000846C06820F00300C8600846C068284918
:1020300008402549C860FEF71FFE054607E00DE091
:10204000FEF71AFE401B022801D9032093E51E4823
:10205000006800F000700028F2D132E0E069012849
:1020600000D188E51848C66806F00301206A81425D
:1020700025D106F0F001606A401EB1EB001F1ED1B1
:1020800006F4FE41A06AB1EB002F18D106F07841AA
:102090002C20005DB1EBC06F11D106F4C001208E81
:1020A0000122C2EB5000B1EB405F08D106F0C061E5
:1020B0003420005DC2EB5000B1EB406F01D0012035
:1020C00059E5002057E50000001002400C809F01F8
:1020D000FFFFEEFE014691F85D00704770B50446C3
:1020E0000CB9012070BD606A38B96068B0F5827FB4
:1020F00000D105E00021E16102E000212161616180
:102100000021A16294F85D0028B9002084F85C00E9
:10211000204600F061F8022084F85D002068006825
:1021200020F0400021680860E068B0F5E06F01D958
:10213000002501E04FF48055E068B0F5706F05D0E0
:10214000E068B0F5E06F01D00021A162A08800F442
:102150008270218901F404410843217C01F00201CD
:102160000843217D01F001010843218B01F4007136
:102170000843217F01F0380108432021095D01F067
:1021800080010843218D01F4005108432168086053
:102190000421A06901EA104094F8241001F0100114
:1021A000084394F8341001F008010843A18901F4B0
:1021B0007061084305F48051084321684860206835
:1021C000C06920F400602168C861002020660120F9
:1021D00084F85D00002085E710B586B00446142120
:1021E00001A8FEF74FF82E492068884229D100BF88
:1021F0002C48006E40F480502A4908660846006E5C
:1022000000F48050009000BF00BF00BF0846C06CC3
:1022100040F00100C8640846C06C00F00100009066
:1022200000BF00BFE0200190022002900020039038
:1022300004900520059001A94FF09040FEF726FC80
:102240002CE019492068884228D100BF1548806DCC
:1022500040F48040134988650846806D00F4804052
:10226000009000BF00BF00BF0846C06C40F00200F5
:10227000C8640846C06C00F00200009000BF00BFB8
:102280004FF46040019002200290002003900490DF
:102290000520059001A90548FEF7F8FB06B010BD22
:1022A00000300140001002400038004000040048A7
:1022B0002DE9F8430446884616461D464FF00009AE
:1022C0006068B0F5827F0DD1A06858B9042084F809
:1022D0005D003346424641462046009500F0B0F985
:1022E000BDE8F88300BF94F85C00012801D102200A
:1022F000F6E7012084F85C0000BFFEF7BDFC07464E
:1023000094F85D00012802D04FF0020999E0B8F17D
:10231000000F00D016B94FF0010992E0042084F8B4
:102320005D0000202066C4F84080A4F84460A4F852
:102330004660A063A087E087E0642065E068B0F5B0
:10234000E06F06D92068406820F48050216848601A
:1023500005E02068406840F4805021684860A0682B
:10236000B0F5004F0BD12068006820F040002168D4
:1023700008602068006820F48040216808602068B8
:10238000006800F04000402805D02068006840F058
:10239000400021680860E068B0F5E06F22D81CE0DA
:1023A0002068806800F0010060B12068007B216C2B
:1023B0000870206C401C2064B4F84600401EA4F84D
:1023C00046000AE0FEF758FCC01BA84201D3681C77
:1023D00000B915B94FF0030933E0B4F846000028FE
:1023E000DED121E01CE02068806800F0010060B1CF
:1023F0002068C068216C0880206C801C2064B4F8C0
:102400004600401EA4F846000AE0FEF735FCC01B5B
:10241000A84201D3681C00B915B94FF0030910E0B8
:10242000B4F846000028DED13A462946204601F09D
:1024300041FF08B120202066206E08B14FF001094D
:1024400000BF012084F85D0000BF002084F85C001C
:1024500000BF484644E72DE9F84F04468846164633
:102460001D464FF0000A00BF94F85C00012802D11D
:102470000220BDE8F88F012084F85C0000BFFEF761
:10248000FBFB0746B14694F85D00012802D04FF0EF
:10249000020ACBE0B8F1000F00D016B94FF0010AE4
:1024A000C4E0032084F85D0000202066C4F8388072
:1024B000A687E6872064A4F84400A4F846002065B7
:1024C000E064A068B0F5004F0BD12068006820F0F0
:1024D0004000216808602068006840F4804021685E
:1024E00008602068006800F04000402805D020689F
:1024F000006840F0400021680860E068B0F5E06FD7
:102500002FD9606810B1B9F1010F09D1A06B008813
:102510002168C860A06B801CA063E08F401EE0872C
:102520001BE02068806800F0020002280AD1A06B3E
:1025300000882168C860A06B801CA063E08F401EEB
:10254000E0870AE0FEF798FBC01BA84201D3681C95
:1025500000B915B94FF0030A68E0E08F0028E0D118
:102560004AE0606810B1B9F1010F17D1E08F01287E
:102570000AD9A06B00882168C860A06B801CA0638A
:10258000E08F801EE08709E0A06B00782168087367
:10259000A06B401CA063E08F401EE08729E020680C
:1025A000806800F00200022818D1E08F01280AD9C3
:1025B000A06B00882168C860A06B801CA063E08FBE
:1025C000801EE08715E0A06B007821680873A06B7F
:1025D000401CA063E08F401EE0870AE0FEF74CFB42
:1025E000C01BA84201D3681C00B915B94FF0030AFB
:1025F0001CE0E08F0028D2D13A462946204601F05F
:102600009AFE08B120202066A06850B900BF0020C3
:1026100000902068C068009020688068009000BF2B
:1026200000BF206E08B14FF0010A00BF012084F8FE
:102630005D0000BF002084F85C0000BF504618E732
:102640002DE9FF5F0446894692461D460E9E0120F5
:1026500001900020009000BF94F85C00012803D195
:10266000022004B0BDE8F09F012084F85C0000BFA8
:10267000FEF702FB074694F85D0002906068039045
:10268000A846AB46029801280BD00398B0F5827F8C
:1026900004D1A06810B90298042802D0022000904A
:1026A00022E1B9F1000F03D0BAF1000F00D015B943
:1026B0000120009018E194F85D00042802D0052064
:1026C00084F85D0000202066C4F840A0A4F84650BD
:1026D000A4F84450C4F83890E587A587E0642065E5
:1026E000E068B0F5E06F02D8BBF1010F06D92068B1
:1026F000406820F480502168486005E02068406808
:1027000040F48050216848602068006800F0400074
:10271000402805D02068006840F04000216808602B
:10272000E068B0F5E06F4ED9606810B1B8F1010F04
:1027300009D1A06B00882168C860A06B801CA063D1
:10274000E08F401EE08736E02068806800F00200DD
:10275000022810D1E08F70B1019801280BD1A06B35
:1027600000882168C860A06B801CA063E08F401EB9
:10277000E087002001902068806800F0010080B1AF
:10278000B4F8460068B12068C068216C0880206CED
:10279000801C2064B4F84600401EA4F846000120C6
:1027A0000190FEF769FAC01BB04204D3701C10B14F
:1027B0000320009098E0E08F0028C5D1B4F84600CF
:1027C0000028C1D185E0606810B1B8F1010F17D1C0
:1027D000E08F01280AD9A06B00882168C860A06B2F
:1027E000801CA063E08F801EE08709E0A06B00786A
:1027F00021680873A06B401CA063E08F401EE08737
:1028000060E02068806800F0020002281ED1E08F9E
:10281000E0B10198012819D1E08F01280AD9A06BF5
:1028200000882168C860A06B801CA063E08F801EB8
:10283000E08709E0A06B007821680873A06B401C5A
:10284000A063E08F401EE087002001902068806830
:1028500000F0010058B3B4F8460040B3B4F84600A5
:10286000012816D92068C068216C0880206C801C63
:102870002064B4F84600801EA4F84600B4F8460070
:10288000012812D82068406840F4805021684860D0
:102890000BE02068007B216C0870206C401C2064D9
:1028A000B4F84600401EA4F8460001200190FEF74F
:1028B000E3F9C01BB04201D3701C00B916B9032064
:1028C000009011E0E08F00289BD1B4F8460000286A
:1028D00097D13A463146204601F02DFD18B101202E
:1028E00000902020206600BF012084F85D0000BF1A
:1028F000002084F85C0000BF0098B2E670B5044682
:102900002546681EB0F1807F01D301200FE0681ECC
:102910004FF0E02148610F214FF0FF3003F0FCF948
:1029200000204FF0E021886107200861002070BD81
:1029300070477047704770477047704730B5024620
:102940000B4600BF92F83C00012801D1022030BDA7
:10295000012082F83C0000BF022082F83D00106890
:102960004168106884681D4D1068A84203D01C4D52
:102970001068A84203D121F4700158680143194836
:1029800001401868014310684160144D1068A84266
:1029900013D01068B0F1804F0FD0134D1068A842CB
:1029A0000BD0124D1068A84207D00D4D1068A842F8
:1029B00003D00F4D1068A84205D124F08004986818
:1029C000044310688460012082F83D0000BF0020AD
:1029D00082F83C0000BF00BFB9E70000002C0140B6
:1029E000003401408FFFFFFD00040040000800405C
:1029F00000400140704710B504460CB9012010BDDD
:102A000094F83D0028B9002084F83C00204600F0EE
:102A100029F8022084F83D00211D206802F02AF9DF
:102A2000012084F8480000BF84F83E0001213F20C7
:102A300001554020015541200155422001554320B8
:102A4000015500BF00BF012084F844004520015516
:102A5000462001554720015500BF012084F83D0064
:102A60000020CCE738B504462068B0F1804F16D17D
:102A700000BF1448806D40F0010012498865084687
:102A8000806D00F00100009000BF00BF0022022115
:102A90001C20FEF743FC1C20FEF72CFC11E00A4929
:102AA000206888420DD100BF0648006E40F4003017
:102AB000044908660846006E00F40030009000BF2C
:102AC00000BF38BD0010024000440140014691F8AB
:102AD0003D00012801D001207047022081F83D000F
:102AE000184B0868984213D00868B0F1804F0FD097
:102AF000154B086898420BD0144B0868984207D0D1
:102B0000134B0868984203D0124B0868984210D1C2
:102B100008688068104B00EA0302062A0FD0B2F55D
:102B2000803F0CD00868006840F001000B68186016
:102B300005E00868006840F001000B68186000209C
:102B4000CAE70000002C01400004004000080040DB
:102B50000034014000400140070001002DE9F04130
:102B600004460D46002700BF94F83C00012802D11E
:102B70000220BDE8F081012084F83C0000BF022063
:102B800084F83D00206886683F48064026F47F466A
:102B9000206886602868702824D00CDC00F00F01C3
:102BA000002964D10011072861D2DFE800F05354F6
:102BB000555649353F00354A811A90424FD009DCBD
:102BC000B0F5805F0DD0B0F5005F18D0B0F1101FE8
:102BD0004DD143E0102943D0202942D0502946D17D
:102BE00040E046E0D5E902136A68206802F0A0F8E8
:102BF0002068866846F077062068866039E0D5E967
:102C000002136A68206802F093F82068806840F434
:102C10008040216888602CE0EA686968206802F0DA
:102C20009FF85021206802F08FF822E0EA68696876
:102C3000206802F0A8F86021206802F085F818E00A
:102C4000EA686968206802F08BF84021206802F089
:102C50007BF80EE000BF00BF00BF00BF00BF00BF99
:102C600000BF00BF2968206802F06EF801E001276C
:102C700000BF00BF012084F83D0000BF002084F8A1
:102C80003C0000BF384674E788FFCEFF20001000EC
:102C9000704710B5044620680069C0F34000D8B101
:102CA0002068C068C0F34000B0B16FF00200216836
:102CB0000861012020772068806900F0030018B1C6
:102CC0002046FFF7E5FF05E0204600F002F9204628
:102CD00000F000F90020207720680069C0F3800030
:102CE000D8B12068C068C0F38000B0B16FF00400B4
:102CF00021680861022020772068806900F4407014
:102D000018B12046FFF7C4FF05E0204600F0E1F8C7
:102D1000204600F0DFF80020207720680069C0F32B
:102D2000C000D8B12068C068C0F3C000B0B16FF077
:102D3000080021680861042020772068C06900F03D
:102D4000030018B12046FFF7A3FF05E0204600F07E
:102D5000C0F8204600F0BEF8002020772068006907
:102D6000C0F30010D8B12068C068C0F30010B0B143
:102D70006FF0100021680861082020772068C06982
:102D800000F4407018B12046FFF782FF05E02046AE
:102D900000F09FF8204600F09DF800202077206882
:102DA000006900F0010058B12068C06800F001001F
:102DB00030B16FF0010021680861204600F08BF807
:102DC00020680069C0F3C01058B12068C068C0F323
:102DD000C01030B16FF08000216808612046FFF715
:102DE000A8FD20680069C0F3002058B12068C068C1
:102DF000C0F3C01030B16FF48070216808612046C4
:102E0000FFF796FD20680069C0F3801058B1206874
:102E1000C068C0F3801030B16FF0400021680861D5
:102E2000204600F059F820680069C0F3401058B1FE
:102E30002068C068C0F3401030B16FF020002168F6
:102E400008612046FFF776FD20680069C0F3005056
:102E500058B12068C068C0F3005030B16FF48010E2
:102E6000216808612046FFF767FD20680069C0F30C
:102E7000405058B12068C068C0F3405030B16FF482
:102E80000010216808612046FFF755FD20680069A1
:102E9000C0F3805058B12068C068C0F3805030B192
:102EA0006FF48000216808612046FFF746FD206826
:102EB0000069C0F3C05058B12068C068C0F3C0506A
:102EC00030B16FF40000216808612046FFF792FDE1
:102ED00010BD7047704770477047014600BF91F8BA
:102EE0008000012801D102207047012081F8800074
:102EF00000BF2420C1F884000868026808680068E0
:102F000020F001000B68186022F000520020486693
:102F1000086802602020C1F8840000BF002081F80A
:102F2000800000BF00BFDFE770B504460D4600BF5C
:102F300094F88000012801D1022070BD012084F89E
:102F4000800000BF2420C4F8840020680668206840
:102F5000006820F00100216808602068806820F087
:102F60006060284321688860204601F021FF2068C6
:102F700006602020C4F8840000BF002084F8800090
:102F800000BF00BFD9E770B504460D4600BF94F8F6
:102F90008000012801D1022070BD012084F880004A
:102FA00000BF2420C4F884002068066820680068F8
:102FB00020F00100216808602068806820F06040EF
:102FC000284321688860204601F0F2FE20680660F0
:102FD0002020C4F8840000BF002084F8800000BFD7
:102FE00000BFD9E710B504460CB9012010BDA06997
:102FF00000B100E000BFD4F8840028B9002084F8B4
:103000008000204600F02AF82420C4F884002068BC
:10301000006820F0010021680860204601F0ACFF44
:10302000012800D1E2E7A06A10B1204601F0ECFED1
:103030002068406820F490402168486020688068DB
:1030400020F02A00216888602068006840F00100B4
:1030500021680860204601F053FFC7E710B598B01B
:103060000446142113A8FDF70DF9442102A8FDF729
:1030700009F91D492068884233D1012002900020BF
:10308000039002A8FEF732FA08B1FDF7E8FC00BF92
:103090001648006E40F48040144908660846006EE9
:1030A00000F48040019000BF00BF00BF0846C06C24
:1030B00040F00100C8640846C06C00F001000190B7
:1030C00000BF00BF4FF4C060139002201490002096
:1030D000159016900720179013A94FF09040FDF718
:1030E000D5FC18B010BD00000038014000100240AF
:1030F0002DE9F84F04460E4617469946D4F8840049
:1031000020285ED106B117B90120BDE8F88F00BFB5
:1031100094F88000012801D10220F6E7012084F80C
:10312000800000BF00205434A06321202063FDF7FD
:10313000A3FD824627806780543CA068B0F5805F7D
:1031400004D1206910B90025B04602E035464FF0A1
:10315000000800BF002084F8800000BF1DE0534637
:10316000002280212046CDF8009002F0C7F808B177
:103170000320CAE745B9B8F80000C0F30800216889
:10318000886208F1020803E02878216888626D1CD3
:10319000B4F85600401EA4F85600B4F856000028B3
:1031A000DDD15346002240212046CDF8009002F0A8
:1031B000A5F808B10320A8E72020C4F88400002067
:1031C000A3E70220A1E700BFFEE701688969C1F318
:1031D000400111B10021026891620168896901F022
:1031E000010129B90168896941F001010268916111
:1031F000704700002DE9F74F04460E46002720686F
:10320000D0F818800025DDF8089008F0100010288C
:1032100050D12168C8613FE0701C00283CD0FDF708
:103220002BFDA0EB0900B04200D8AEBB206840687F
:1032300000F4804A94F842B020688069C0F3C0303E
:1032400070B1BAF5804F0BD0BBF1200F08D02068C9
:10325000406840F4804021684860FDF70DFD8146DC
:1032600014E0FDF709FDA0EB090019280ED9606CE8
:1032700040F020006064202084F84100002084F8A1
:10328000420000BF84F8400000BF01272068806929
:10329000C0F340100028E4D020688069C0F34010DB
:1032A00008B9002FB8D017B920202168C86145F0AF
:1032B000040501272068D0F8188008F48070B0F564
:1032C000807F06D145F001054FF480702168C86108
:1032D000012708F48060B0F5806F06D145F008053D
:1032E0004FF480602168C861012708F40070B0F5D0
:1032F000007F06D145F002054FF400702168C861D7
:103300000127AFB12046FFF760FF206840680A49F7
:10331000084021684860606C28436064202084F87D
:103320004100002084F8420000BF84F8400000BF44
:103330003846BDE8FE8F000000E800FE2DE9F843A6
:103340000446894615461E46DDE908781948F2B25A
:10335000002349460090204600F06CF8424639466A
:10336000204600F0DDF810B10120BDE8F883012E01
:1033700003D1E8B2216888620EE0C5F30720216816
:10338000886242463946204600F0CAF808B101205A
:10339000EBE7E8B2216888623B46002240212046E4
:1033A000CDF8008000F062F808B10120DDE70020D0
:1033B000DBE70000002000802DE9F8430446894641
:1033C00015461E46DDE908781948F2B2C30249469F
:1033D0000090204600F02EF842463946204600F084
:1033E0009FF810B10120BDE8F883012E03D1E8B2A7
:1033F000216888620EE0C5F3072021688862424692
:103400003946204600F08CF808B10120EBE7E8B21D
:10341000216888623B46002280212046CDF800804A
:1034200000F024F808B10120DDE70020DBE7000010
:1034300000200080F0B5059CC1F309064FF47F071A
:1034400007EA02473E431E43264326F0004506682E
:1034500076684FF4806707EA545767F0FC2747F413
:10346000C047BE432E4307687E60F0BD2DE9F041A2
:1034700004460E4617461D46DDF8188019E0681C04
:10348000B8B1FDF7F9FBA0EB0800A84200D885B958
:10349000606C40F020006064202084F8410000202F
:1034A00084F8420000BF84F8400000BF0120BDE85E
:1034B000F081206880693040B04201D1012000E0F5
:1034C0000020B842DBD00020F1E770B504460D467D
:1034D00016461DE0324629462046FFF78BFE08B10E
:1034E000012070BDFDF7C8FB801BA84200D87DB944
:1034F000606C40F020006064202084F841000020CF
:1035000084F8420000BF84F8400000BF0120E8E7D3
:1035100020688069C0F340100028DBD00020E0E77D
:1035200070B504460D4616461FE032462946204631
:10353000FFF760FE08B1012070BD681CA8B1FDF75F
:103540009BFB801BA84200D87DB9606C40F0200036
:103550006064202084F84100002084F8420000BF0D
:1035600084F8400000BF0120E6E720688069C0F3CE
:1035700040000028D9D00020DEE7000010B52DED76
:10358000088B04469FEDC70AB0EE40BA04F138023A
:103590000621022000F0F4FD04F13202062112207F
:1035A00000F098FD94F832103320005D41EA0020CD
:1035B00000B220833420015D3520005D41EA002007
:1035C00000B260833620015D3720005D41EA0020B3
:1035D00000B2A08394F838103920005D41EA002041
:1035E00000B2A0853A20015D3B20005D41EA002049
:1035F00000B2E0853C20015D3D20005D41EA0020F5
:1036000000B22086A84890ED000ADFEDA80A20EE5F
:10361000200AB4F92C0000EE900AF8EEE00A9FEDC3
:10362000A11A00EE810ABDEEC00A10EE100A00B227
:10363000A0859D4890ED010ADFED9C0A20EE200A4E
:10364000B4F92E0000EE900AF8EEE00A9FED951A0C
:1036500000EE810ABDEEC00A10EE100A00B2E0854D
:10366000914890ED020ADFED910A20EE200AB4F9AC
:10367000300000EE900AF8EEE00A9FED8A1A00EEA4
:10368000810ABDEEC00A10EE100A00B22086B4F91D
:103690002C0000EE100AB8EEC00A834880ED000A44
:1036A000B4F92E0000EE100AB8EEC00A7E4880ED94
:1036B000010AB4F9300000EE100AB8EEC00A7A48E8
:1036C00080ED020A7A4890ED000ADFED780A20EEDC
:1036D000200AB4F9180000EE900AF8EEE00A9FED17
:1036E000711A00EE810ABDEEC00A10EE100A00B297
:1036F00020836F4890ED010ADFED6C0A20EE200A6E
:10370000B4F91A0000EE900AF8EEE00A9FED651A8F
:1037100000EE810ABDEEC00A10EE100A00B260830E
:10372000634890ED020ADFED610A20EE200AB4F949
:103730001C0000EE900AF8EEE00A9FED5A1A00EE27
:10374000810ABDEEC00A10EE100A00B2A083B4F9DF
:10375000180000EE100AB8EEC00A554880ED000AC5
:10376000B4F91A0000EE100AB8EEC00A504880ED15
:10377000010AB4F91C0000EE100AB8EEC00A4C4869
:1037800080ED020AB4F9180000EE100AB8EEC00A83
:10379000DFED480A20EE200A84ED030AB4F91A008E
:1037A00000EE100AB8EEC00ADFED420A20EE200A51
:1037B00084ED040AB4F91C0000EE100AB8EEC00A49
:1037C000DFED3C0A20EE200A84ED050AB4F92C0056
:1037D00000EE100AB8EEC00A10EE101A0846FCF708
:1037E000F5FE41EC1A0B9FED340B53EC102BFCF75C
:1037F0006DFE41EC190B9FED320B53EC102BFCF7D7
:10380000F3FD41EC180BFCF7F4FE00EE100A84ED1A
:10381000080AB4F92E0000EE100AB8EEC00A10EE45
:10382000101A0846FCF7D2FE41EC1A0B9FED220B52
:1038300053EC102BFCF74AFE41EC190B9FED200BCB
:1038400053EC102BFCF7D0FD41EC180BFCF7D1FE2C
:1038500000EE100A84ED090AB4F9300000EE100AF7
:10386000B8EEC00A10EE101A0846FCF7AFFE41ECA5
:103870001A0B9FED110B53EC102BFCF727FE41ECBC
:10388000190B9FED0F0B53EC102BFCF7ADFD41EC2A
:10389000180BFCF7AEFE00EE100A84ED0A0ABDEC30
:1038A000088B10BD9A99193E580300209A99593FE8
:1038B0004C030020E7416B3AFCA9F1D24D62504025
:1038C000000000A046DF913F00B587B0142102A898
:1038D000FCF7D8FC00BF3048C06C40F020002E49F7
:1038E000C8640846C06C00F02000019000BF00BF13
:1038F00000BF0846C06C40F00100C8640846C06CB8
:1039000000F00100019000BF00BF00BF0846C06C7E
:1039100040F00200C8640846C06C00F0020001904C
:1039200000BF00BF012210214FF09040FDF79EF92B
:1039300001224FF4C0511948FDF798F900224FF4C5
:10394000C0514FF09040FDF791F9102002900120F6
:10395000039004900220059002A94FF09040FDF7DB
:1039600095F84FF4C050029001200390049002207B
:10397000059002A90948FDF789F84FF4C05002905C
:103980000120039002200490059002A94FF090407E
:10399000FDF77CF807B000BD0010024000040048AD
:1039A00010B51248124908601248486000211048BA
:1039B00081600121C1600021016141618161C161BA
:1039C0000162FDF7C9F908B1FDF749F8002108487F
:1039D000FDF758F908B1FDF742F800210448FDF75A
:1039E00086F908B1FDF73BF810BD00000054004017
:1039F000240000208C5F506010B511481149086008
:103A00004FF48270486000210E4881604FF4E061FD
:103A1000C1600221016101214161490281613021BE
:103A2000C16100210162416281620721C1620021FE
:103A300001634163FEF752FB08B1FDF710F810BDBA
:103A4000003001407000002010B511481149086095
:103A50004FF48270486000210E4881604FF4E061AD
:103A6000C16002210161012141614902816130216E
:103A7000C16100210162416281620721C1620021AE
:103A800001634163FEF72AFB08B1FCF7E8FF10BDB4
:103A900000380040D400002010B50A480A490860E8
:103AA00000204860002108488160A721C1600021F2
:103AB000016141618161FEF79EFF08B1FCF7CFFF14
:103AC00010BD0000004401408401002000B587B013
:103AD00000200390049005900690009001900290C1
:103AE0004FF08040144908600020486000211248CF
:103AF0008160D221C1600021016180218161FEF7D6
:103B00007AFF08B1FCF7ABFF4FF48050039003A994
:103B10000948FFF723F808B1FCF7A1FF2020009027
:103B20000020029069460448FEF708FF08B1FCF740
:103B300096FF07B000BD00003801002010B51848FE
:103B4000184908604FF4E120486000211548816061
:103B5000C16001610C21416100218161C16101628B
:103B6000416200200F4988620846FFF73BFA08B11E
:103B7000FCF775FF00210B48FFF705FA08B1FCF7C9
:103B80006EFF00210748FFF7CFF908B1FCF767FF88
:103B90000448FFF7A2F908B1FCF761FF10BD00006F
:103BA00000380140D0010020114880ED130AC0ED1B
:103BB000150A80ED161AF7EE001AC0ED171ADFEDA0
:103BC0000D1AC0ED181ADFED0B1AC0ED191ADFED52
:103BD000091AC0ED1A1ADFED071AC0ED1B1ADFED46
:103BE000051AC0ED1C1ADFED031AC0ED1D1A70474F
:103BF000D40200200000000000BFFEE700BFFEE787
:103C00007047000070B5002400250D2000F078F901
:103C100005460CE0601CC4B2FA2C01DD032070BD27
:103C20000220FCF71FFF0D2000F06AF90546FF2D6A
:103C3000F0D180210A2000F079F96420FCF712FF0E
:103C400001210B2000F072F90A20FCF70BFF412143
:103C50000A2000F06BF94021202000F067F90121D3
:103C6000212000F063F91521092000F05FF90920F7
:103C700000F046F9152801D00320D0E7B7EE000A7E
:103C8000074880ED090AB7EE000A80ED0A0AB7EE90
:103C9000000A80ED0B0A00F05DF90020BFE700008C
:103CA000A002002030B52DED048B85B00446FF2026
:103CB000022104AA0123CDE90021029007221B2141
:103CC0000E48FDF7ABF89DF810009DF8111000EBC1
:103CD000012005B22846FCF768FC41EC190B9FED6A
:103CE000080B53EC102BFCF7F1FB41EC180BFCF725
:103CF00080FC206005B0BDEC048B30BD24000020AA
:103D000000000000000059402DE9F0412DED0C8B22
:103D100088B004460020039004900590062000F02F
:103D2000EFF88046002020B108B0BDEC0C8BBDE858
:103D3000F081FF20062106AA0123CDE9002102908F
:103D400000221B216A48FDF769F8062000F0D8F828
:103D500080469DF818009DF8191040EA012005B230
:103D60009DF81A009DF81B1040EA012006B29DF84C
:103D70001C009DF81D1040EA012007B2032095FBAE
:103D8000F0F005B2032096FBF0F006B2032097FB9B
:103D9000F0F007B2B4F91C00281A00EE100AB8EED1
:103DA000C00AD4ED090A20EE208AB4F91E00301AA8
:103DB00000EE100AB8EEC00AD4ED0A0A60EE208ABE
:103DC000B4F92000381A00EE100AB8EEC00AD4ED9B
:103DD0000B0A20EE209A84ED008AC4ED018A84ED5E
:103DE000029A18EE100AFCF7F1FB41EC1C0B18EEDE
:103DF000900AFCF7EBFB41EC1D0BB0EE4C1AF0EE19
:103E00006C1AB0EE4D0AF0EE6D0A02F0B5FAB0EEA3
:103E100040BAF0EE60BA9FED370B53EC102B51EC2B
:103E20001B0BFCF7E1FA41EC1A0BFCF7E2FB2061FB
:103E300094ED040AB5EEC00AF1EE10FA07D294ED43
:103E4000040ADFED2E0A30EE200A84ED040A18EE93
:103E5000100AFCF7BBFB41EC1C0B19EE100AFCF737
:103E6000B5FB41EC1D0BB0EE4C1AF0EE6C1AB0EE47
:103E70004D0AF0EE6D0A02F07FFAB0EE40BAF0EEB5
:103E800060BA9FED1C0B53EC102B51EC1B0BFCF795
:103E9000ABFA41EC1A0BFCF7ACFB606118EE900A30
:103EA000FCF794FB41EC1C0B19EE100AFCF78EFB9F
:103EB00041EC1D0BB0EE4C1AF0EE6C1AB0EE4D0A50
:103EC000F0EE6D0A02F058FAB0EE40BAF0EE60BAC9
:103ED0009FED080B53EC102B51EC1B0BFCF784FAF5
:103EE00041EC1A0BFCF785FBA06100BF1CE700004A
:103EF00024000020775AF01ADCA54C400000B4439F
:103F00001FB5044600200390FF20012103AA0B46A1
:103F1000CDE90021029022461B210348FCF77EFFD9
:103F20009DF80C0004B010BD2400002013B584B02F
:103F30000446FF20012105AA0B46CDE9002102908D
:103F400022461A210248FDF739F806B010BD0000DC
:103F50002400002001466FF0580088836FF0920023
:103F6000C88347200884B7EE000A81ED090A9FED57
:103F7000040A81ED0A0A9FED030A81ED0B0A7047DE
:103F8000A4707D3F14AE873FF0EE400AB7EE082ADA
:103F9000F0EE421AB6EE002A20EE822AB0EE421A65
:103FA000B0EE600A10EE100A0749A1EB600000EEC7
:103FB000100A61EE002AB7EE082A02EEC02A22EEAD
:103FC000002AB0EE420A7047DF59375F70B5164DD0
:103FD000ED6805F00304144DED68C5F303156B1C83
:103FE000022C0CD0032C09D1104DB5FBF3F50E4E6D
:103FF000F668C6F3062605FB06F10AE000BF0C4D85
:10400000B5FBF3F5084EF668C6F3062605FB06F188
:1040100000BF00BF044DED68C5F341656D1C6A002B
:10402000B1FBF2F070BD00000010024000127A00F7
:104030000024F40010B586B0044603A9412000F026
:10404000C9F804AA0621122000F044F89DF81000D7
:104050009DF8111000EB012000B2ADF804009DF8AE
:1040600012009DF8131000EB012000B2ADF806001D
:104070009DF814009DF8151000EB012000B2ADF87A
:104080000800BDF9040000EE100AB8EEC00ADFED2A
:10409000100A20EE200A84ED030ABDF9060000EEA6
:1040A000100AB8EEC00ADFED0A0A20EE200A84EDFD
:1040B000040ABDF9080000EE100AB8EEC00ADFEDF0
:1040C000040A20EE200A84ED050A06B010BD0000A7
:1040D000E7416B3A2DE9FC4706460C46174604F1CA
:1040E0000108404604F032F8814646F08000019015
:1040F00000224FF480512048FCF7B8FD022003F065
:1041000003FF0A23012201A91C48FEF7A4F900BFFE
:104110001A48FDF7DFFF0328FAD00A230122694677
:104120001648FEF7C5F800BF1448FDF7D3FF042872
:10413000FAD0002510E00A23012269460F48FEF755
:10414000B7F800BF0D48FDF7C5FF0428FAD09DF869
:1041500000007855681CC5B2A542ECDB022003F0D4
:10416000D3FE012211030448FCF780FD484603F00A
:1041700005FFBDE8FC87000000040048D4000020D3
:10418000F8B506460C46154646F080000090002221
:104190004FF400610D48FCF769FD022003F0B4FE06
:1041A0000A23012269460A48FEF755F9642322468C
:1041B00029460748FEF77CF8022003F0A5FE0122FD
:1041C000D1020248FCF752FDF8BD0000000400488F
:1041D000D40000207CB504460D4644F080000090D9
:1041E00000224FF480511548FCF740FD022003F0F7
:1041F0008BFE0A23012269461148FEF72CF900BF05
:104200000F48FDF767FF0328FAD00A23022201A90D
:104210000B48FEF74DF800BF0948FDF75BFF042887
:10422000FAD09DF805002870022003F06DFE0122EF
:1042300011030248FCF71AFD7CBD00000004004891
:10424000D400002038B504460D46022003F05CFE81
:1042500000224FF400611548FCF708FD022003F02E
:1042600053FE44F0800000900A2301226946104862
:10427000FEF7F1F800BF0E48FDF72CFF0328FAD037
:104280000A23012229460A48FEF712F800BF08480F
:10429000FDF720FF0428FAD0022003F035FE0122AA
:1042A000D1020248FCF7E2FC38BD000000040048DF
:1042B000D4000020F8B504460E4615466068B0F5F7
:1042C000827F0DD1A068B0F5004F03D0A068B0F593
:1042D000806F05D12068006820F0400021680860E8
:1042E0003346002280212046009500F0D3F828B103
:1042F000206E40F0200020660320F8BD6068B0F515
:10430000827F16D1A068B0F5004F03D0A068B0F549
:10431000806F0ED1334600224FF4C06120460095D5
:1043200000F03CF828B1206E40F020002066032009
:10433000E3E70020E1E7F8B504460E4615463346AC
:1043400000224FF4C0512046009500F027F828B114
:10435000206E40F0200020660320F8BD3346002286
:1043600080212046009500F095F828B1206E40F09D
:10437000200020660320F0E7334600224FF4C0619E
:104380002046009500F00AF828B1206E40F0200089
:1043900020660320E1E70020DFE700002DE9FC5F55
:1043A00004460D4616461F46DDF83090002000906A
:1043B000FCF762FCA0EB0900A7EB0008FCF75CFC33
:1043C0008246206800F10C0B31480068C0EBC00049
:1043D00000EB8000000D00FB08F0019050E0B5F507
:1043E000C06F05D126B99BF8000000909DF8000031
:1043F000781C002844D0FCF73FFCA0EB0A004045A5
:1044000002D2B8F1000F34D12068406820F0E000FB
:10441000216848606068B0F5827F0DD1A068B0F572
:10442000004F03D0A068B0F5806F05D12068006808
:1044300020F0400021680860A06AB0F5005F0DD14F
:1044400000BF2068006820F40050216808602068E0
:10445000006840F400502168086000BF012084F823
:104460005D0000BF002084F85C0000BF0320BDE8B1
:10447000FC9F019808B94FF000080198401E019078
:10448000206880682840B042A9D10020EFE70000F2
:10449000000000202DE9F84F04460D4690461E46C8
:1044A000DDF82890FCF7E8FBA0EB0900371AFCF7D1
:1044B000E3FB82462C480068C0F3CB307843009081
:1044C00045E0701C002842D0FCF7D6FBA0EB0A00A8
:1044D000B84200D2A7BB2068406820F0E000216805
:1044E00048606068B0F5827F0DD1A068B0F5004FDC
:1044F00003D0A068B0F5806F05D12068006820F077
:10450000400021680860A06AB0F5005F0DD100BFCF
:104510002068006820F40050216808602068006866
:1045200040F400502168086000BF012084F85D005D
:1045300000BF002084F85C0000BF0320BDE8F88FB6
:10454000FFE7009800B900270098401E00902068FF
:1045500080682840A84201D1012000E000204045A9
:10456000AFD10020EAE700000000002038B5044683
:10457000002000900A20FCF775FA89210C2000F039
:1045800001FB6420FCF76EFA012269460D2000F061
:10459000BFFA9DF8000010280DD01EA001F078FB96
:1045A00008E06420FCF75EFA4FF480514FF0904031
:1045B000FCF752FBF5E701226946082000F0A8FA53
:1045C0000DE06420FCF74EFA4FF480514FF090401C
:1045D000FCF742FB01226946082000F099FA00200E
:1045E0000028EED18021092000F0CCFA00F0EAF991
:1045F00004226021204600F01FF80422602120469A
:1046000000F084F8072000F00FF86420FCF72AFA85
:1046100038BD000053504C3036204944206572723A
:104620006F72210A0000000010B5044621460820E0
:1046300000F0A8FA10BD0000F8B504460E46154675
:1046400000200090082D2DD2DFE805F004090E139C
:10465000181D22279FED250A84ED0E0A22E09FED0A
:10466000240A84ED0E0A1DE09FED220A84ED0E0A55
:1046700018E09FED210A84ED0E0A13E09FED1F0A5A
:1046800084ED0E0A0EE09FED1E0A84ED0E0A09E08D
:104690009FED1C0A84ED0E0A04E09FED1B0A84EDD9
:1046A0000E0A00BF00BF46EA0501062000F06AFAC4
:1046B00001226946092000F02BFA032D0ADD9DF83E
:1046C000000040F0040000909DF80010092000F068
:1046D00059FA09E09DF8000000F0FB0000909DF8F9
:1046E0000010092000F04EFAF8BD0000801B0049C0
:1046F0000000C0490000604A0000F04A000078480D
:104700000000FC4800007E490000FF49F8B504465F
:104710000E46154600200090082D2DD2DFE805F04A
:1047200004090E13181D22279FED260A84ED0F0A97
:1047300022E09FED250A84ED0F0A1DE09FED230A7C
:1047400084ED0F0A18E09FED220A84ED0F0A13E0B2
:104750009FED200A84ED0F0A0EE09FED1F0A84ED05
:104760000F0A09E09FED1D0A84ED0F0A04E09FED9A
:104770001C0A84ED0F0A00BF00BF46F0800040EA2B
:104780000501072000F0FEF901226946092000F02A
:10479000BFF9032D0ADD9DF8000040F008000090ED
:1047A0009DF80010092000F0EDF909E09DF80000E7
:1047B00000F0F70000909DF80010092000F0E2F9E9
:1047C000F8BD0000801B00490000C0490000604A9D
:1047D0000000F04A000078480000FC4800007E49D4
:1047E0000000FF4970B52DED108B82B00446062203
:1047F0006946002000F08CF99DF8000000049DF847
:10480000011040EA01209DF8021040EA010606F47A
:10481000000010B146F07F4000E0304606469DF8AB
:10482000030000049DF8041040EA01209DF80510E3
:1048300040EA010505F4000010B145F07F4000E0BA
:1048400028460546D4ED0E0A00EE106AB8EEC00AFE
:1048500080EE208AD4ED0F0A00EE105AB8EEC00A9E
:10486000C0EE208AB4F9300000EE100AB8EEC00A9B
:10487000B4F9340000EE900AF8EEE00A08EE200ADF
:10488000D4ED0A0AF8EEE00AB0EE60FA08EE00FA9B
:10489000B4F92E0000EE100AB8EEC00AB4F93200E6
:1048A00000EE900AF8EEE00A08EE200A68EE880AA8
:1048B00060EE20FA94ED090AB8EEC00A08EE0F0A7D
:1048C000B4F92C0000EE900AF8EEE00A08EEA00A17
:1048D00030EE2F0A84ED060AB4F91E0000EE100A2D
:1048E000B8EEC00AF6EE000A20EE200AB4F9200065
:1048F00000EE900AF8EEE00A00EEA80A84ED030A42
:104900009FED279B94ED060A10EE101A0846FBF760
:104910005DFE41EC1E0B9FED240B53EC102BFBF7BF
:10492000D5FD41EC1D0BB0EE491AF0EE691AB0EE60
:104930004D0AF0EE6D0A01F077FFB0EE40CAF0EEDE
:1049400060CA9FED1B0B53EC102B51EC1C0BFBF7BB
:1049500048FD41EC1B0B9FED180B53EC102BFBF7A4
:1049600043FD41EC1A0BFBF744FE2061144800782C
:10497000012809D194ED040A84ED050A1048007855
:10498000401C0F49087007E094ED040AD4ED050AB5
:1049900030EE600A84ED040A02B0BDEC108B70BDED
:1049A0006C45D9CC955BC83F00000000D0BCF840F6
:1049B000000000000000F03F0000000040A5E540BE
:1049C0000400002000B585B012226946102000F0D6
:1049D0009FF89DF8000000019DF8011040EA2110A9
:1049E0004949C8830846C08B00F4006028B10846D6
:1049F000B0F91E0040F4704002E04348B0F91E00D8
:104A000000B24149C8839DF802009DF8011001F0F1
:104A10000F0140EA01203C4908840846008C00F45C
:104A2000006028B10846B0F9200040F4704002E070
:104A30003548B0F9200000B2334908849DF80300DE
:104A400000039DF8041040EA01109DF8051040EAAB
:104A500021102D4948620846406A00F4002020B128
:104A60000846406A2949084301E02748406A264928
:104A700048629DF805000007000B9DF8061040EA0B
:104A800001209DF8071008431F4988620846806A84
:104A900000F4002020B10846806A1C49084301E068
:104AA0001948806A184988629DF809009DF8081025
:104AB00040EA012000B2144988859DF80B009DF85A
:104AC0000A1040EA012000B20F49C8859DF80D0088
:104AD0009DF80C1040EA012000B20B4908869DF8B1
:104AE0000F009DF80E1040EA012000B206494886EA
:104AF0009DF811009DF8101040EA012000B2024913
:104B0000888605B000BD0000600200200000F0FFB4
:104B1000F8B504460D4616460020009000221021EC
:104B20004FF09040FCF7A2F8022003F0EDF944F0BA
:104B3000800000906423012269461048FDF78BFC39
:104B400000BF0F48FDF7C6FA0328FAD04FF47A7376
:104B5000324629460948FDF7ABFB00BF0848FDF780
:104B6000B9FA0428FAD0022003F0CEF9012210216C
:104B70004FF09040FCF77AF8F8BD0000700000207C
:104B8000D400002038B504460D46002210214FF015
:104B90009040FCF76BF8022003F0B6F904F07F00B8
:104BA0008DF800008DF801500A2302226946094859
:104BB000FDF751FC00BF0848FDF78CFA0328FAD036
:104BC000022003F0A1F9012210214FF09040FCF7E0
:104BD0004DF838BD70000020D4000020704710B59B
:104BE000FCF71EFB10BD00B593B0382105A8FBF7FC
:104BF00049FB14216846FBF745FB0020FCF7E0FB6E
:104C0000012005900004069002200C9003210D91D4
:104C100001210E912A210F910221109111911291DF
:104C200005A8FCF7A3FF08B1FBF719FF0F200090C0
:104C30000320019000200290039004900421684614
:104C4000FCF70CFE08B1FBF70AFF13B000BD000033
:104C50000348006840F47000014908607047000094
:104C600088ED00E010B50248FEF713F810BD000013
:104C70003801002010B50268264B98420BD0B0F1E5
:104C8000804F08D0244B984205D0244B984202D044
:104C9000234B984203D122F070024B681A431D4BFC
:104CA000984214D0B0F1804F11D01B4B98420ED0D7
:104CB0001A4B98420BD01A4B984208D0194B984285
:104CC00005D0194B984202D0184B984203D122F4D8
:104CD0004072CB681A4322F080034C6943EA040215
:104CE00002608B68C3620B6883620A4B98420BD0E8
:104CF0000B4B984208D00B4B984205D00A4B984278
:104D000002D00A4B984201D10B690363012343612E
:104D100010BD0000002C01400004004000080040CD
:104D2000003401400040014000440140004801407F
:104D300030B50C46816821F47F4142EA03252543C2
:104D40002943816030BD00000A468168034B194049
:104D500042F0070319438160704700008FFFCFFFC7
:104D600030B50B461446026A056A25F00105056256
:104D7000816921F0F00141EA041122F00A021A438C
:104D80008161026230BD30B50B461446056A25F0DC
:104D9000100505628169026A21F4704141EA04311B
:104DA00022F0A00242EA03128161026230BD0000DB
:104DB00070B5456E2DB90125A0F86A50A0F868506D
:104DC0001CE0082308240568AD68C5F34261056846
:104DD000AD686A0F0A4DAD5C15FB04F5094EB65C73
:104DE00095FBF6F5A0F86A50054D6D5C15FB03F5D3
:104DF000044E765C95FBF6F5A0F8685070BD000097
:104E0000568200085E82000890F8281001F0010127
:104E100039B10168496821F40031C26A114302685E
:104E2000516090F8281001F00201022907D10168B1
:104E3000496821F48031026B11430268516090F897
:104E4000281001F00401042907D10168496821F400
:104E50008021426B11430268516090F8281001F0E4
:104E60000801082907D10168496821F40041826BD3
:104E700011430268516090F8281001F010011029C8
:104E800007D10168896821F48051C26B114302681F
:104E9000916090F8281001F02001202907D10168C5
:104EA000896821F40051026C11430268916090F806
:104EB000281001F04001402913D10168496821F40C
:104EC0008011426C114302685160416CB1F5801F42
:104ED00007D10168496821F4C001826C114302685E
:104EE000516090F8281001F08001802907D10168F5
:104EF000496821F40021C26C114302685160704777
:104F000038B504460020C4F88C00FBF7B5FE054612
:104F10002068006800F0080008280CD16FF07E407F
:104F20002B4600224FF400110090204600F0E6F9D5
:104F300008B1032038BD2068006800F00400042890
:104F40000CD16FF07E402B4600224FF48001009080
:104F5000204600F0D3F908B10320EBE72020C4F885
:104F60008400C4F888000020E06600BF84F8800058
:104F700000BF00BFDEE700002DE9FE4F0446002021
:104F80000290D4492068884200D100E000BF216926
:104F9000A068084361690843E16940EA01082068A4
:104FA0000068CD49084040EA080021680860206890
:104FB000406820F44050E168084321684860D4F814
:104FC0001880C4492068884202D0206A40EA080854
:104FD00020688068C149084040EA0800216888606C
:104FE0002068C06A20F00F00616A08432168C86227
:104FF00000BFBB492068884216D1BA48006800F05B
:10500000030030B1012808D0022804D0032808D1B9
:1050100005E0012507E0022505E0042503E0082559
:1050200001E0102500BF6FE0AF492068884216D12B
:10503000AC48006800F00C0030B1042808D0082803
:1050400004D00C2808D105E0002507E0022505E082
:10505000042503E0082501E0102500BF54E0A34922
:105060002068884216D19F48006800F0300030B1B7
:10507000102808D0202804D0302808D105E00025C9
:1050800007E0022505E0042503E0082501E01025DE
:1050900000BF39E096492068884216D191480068DF
:1050A00000F0C00030B1402808D0802804D0C028CB
:1050B00008D105E0002507E0022505E0042503E00E
:1050C000082501E0102500BF1EE0824920688842C3
:1050D00019D18448006800F4406048B1B0F5806F91
:1050E0000AD0B0F5006F05D0B0F5406F08D105E0EB
:1050F000002507E0022505E0042503E0082501E07E
:10510000102500BF00E0102500BF724920688842CA
:1051100059D135B1022D08D0042D08D0082D0DD15C
:1051200009E0FCF7B3FC06460CE0724E0AE0FCF71F
:10513000D1FC064606E04FF4004603E000260120BD
:10514000029000BF00BF002E10D06B49606A31F89A
:105150001000B6FBF0F9606800EB4000484503D84A
:1051600060680003484502D201200290A6E062492F
:10517000606A31F810C06246002330461946FBF7DA
:1051800049F84FF4807C0022A0FB0C3B01FB0CB1E2
:1051900000FB02116068400818185141CDE9000178
:1051A000D4F804C062460023FBF734F80746B7F58D
:1051B000407F05D3B7F5801F02D22068C7607DE02D
:1051C000012002907AE0E069B0F5004F3FD1092D4F
:1051D00017D2DFE805F005090D160F161616130095
:1051E000FCF754FC064610E0FCF762FC06460CE0B7
:1051F000404E0AE0FCF76EFC064606E04FF400461F
:1052000003E000260120029000BF00BF86B33A49A8
:10521000606A31F81000B6FBF0F04000616800EB06
:105220005100B0FBF1F7102F0ED3B7F5803F0BD232
:105230004FF6F07007EA000AC7F342004AEA000A94
:105240002068C0F80CA039E00120029036E0092D5A
:1052500018D2DFE805F005090E171017171714000C
:10526000FCF714FC064611E0FCF722FC06460DE0B4
:1052700024E0204E0AE0FCF72DFC064606E04FF441
:10528000004603E000260120029000BF00BFAEB13F
:105290001949606A31F81000B6FBF0F0616800EB64
:1052A0005100B0FBF1F7102F06D3B7F5803F03D2C2
:1052B000B8B22168C86001E0012002900120A4F882
:1052C0006A00A4F868000020206760670298BDE8C3
:1052D000FE8F000000800040F369FFCFFFF4FF1154
:1052E000003801408810024000440040004800405F
:1052F000004C00400024F4003E8200082DE9F041FB
:1053000004460D4617469846069E6AE0701C002823
:1053100067D0FBF7B1FCA0EB0800B04200D846BB59
:1053200000BF00BF216851E8001F21F4D07022683F
:1053300042E800010029F5D100BF00BF00BF21688D
:10534000083151E8001F21F001002168083141E8CF
:105350000002002AF3D100BF2020C4F88400C4F862
:10536000880000BF002084F8800000BF0320BDE853
:10537000F0812068006800F0040088B32068C069EC
:10538000C0F3C02060B34FF400602168086200BF22
:1053900000BF216851E8001F21F4D070226842E864
:1053A00000010029F5D100BF00BF00BF216808310E
:1053B00051E8001F21F001002168083141E8000296
:1053C000002AF3D100BF202044F8840F6060A06061
:1053D000843C00BF002084F8800000BF0320C6E7A3
:1053E000FFE72068C0692840A84201D1012000E001
:1053F0000020B8428AD00020B9E7000010B52DED9A
:10540000108BA0B0B0EE40CAF0EE60CAB0EE41DA48
:10541000F0EE61FAF0EE42DAB0EE62EAF0EE43BA94
:10542000F0EE63AAB0EE44BA044694ED170AF0EE2B
:10543000409A94ED180AB0EE40AA94ED190AB0EE25
:10544000409A94ED1A0AB0EE408A29EEA90A8DED31
:10545000110A29EE8A0A8DED100A29EE890A8DEDCE
:105460000F0A29EE880A8DED0E0A2AEE0A0A8DED42
:105470000D0A2AEE090A8DED0C0A2AEE080A8DEDB6
:105480000B0A29EE090A8DED0A0A29EE080A8DEDAC
:10549000090A28EE080A8DED080A6FEEAF0A4DEEF4
:1054A000AD0A4EEE0E0AB0EE600AFEF76DFDF0EEAC
:1054B000408AF5EEC08AF1EE10FA03D120B0BDECBF
:1054C000108B10BD2FEEA80AF0EE40FA2DEEA80AC0
:1054D000F0EE40DA2EEE280AB0EE40EA6BEEAB0AB0
:1054E0004AEEAA0A4BEE0B0AB0EE600AFEF74CFD3C
:1054F000F0EE408AF5EEC08AF1EE10FA00D1DDE759
:105500002BEEA80AF0EE40BA2AEEA80AF0EE40AA66
:105510002BEE280AB0EE40BAB0EE000A6BEE800A1D
:105520009DED0A0AB6EE001A31EE401A9DED080A0A
:1055300031EE400A20EE800AF0EE000A6AEEA01A70
:10554000DDED0C0A9DED0E1A70EEC10A01EEA00A07
:10555000F0EE000A6BEE201ADDED0B0A9DED0F1A3E
:1055600070EE810A01EEA00A8DED1F0AB0EE000A6E
:105570002BEE801A9DED0C0ADDED0E0A30EE200AAE
:1055800021EE000AF0EE000A2AEEA01ADDED0D0A67
:10559000F6EE001A71EEE01ADDED080A71EEE00A8F
:1055A00001EE200AF0EE000A6BEE201ADDED090A8A
:1055B0009DED101A70EEC10A01EEA00A8DED1E0AD3
:1055C000DDED1F0A20EEA01ADDED1E0A00EEA01A86
:1055D000B0EE410AFEF7D8FC8DED1D0AB0EE000AD0
:1055E0002BEE801A9DED0B0ADDED0F0A30EE600AFE
:1055F00021EE000AF0EE000A6AEEA01ADDED090ABB
:105600009DED101A70EE810A01EEA00AF0EE000A7C
:105610002BEE201ADDED0D0AF6EE001A71EEE01AFF
:10562000DDED0A0A71EEE00A01EE200A8DED1C0A9A
:105630009DED0B0ADDED0F0A30EE600AF0EE000A78
:1056400020EE200A8DED1B0A9DED100ADDED090A02
:1056500030EE200AF0EE000A20EE200A8DED1A0A44
:105660009DED110ADDED0D0A70EE600A9DED0A0A4E
:1056700070EEC00A9DED080A30EE800A8DED190A21
:105680009DED1D0AF0EE000A60EE200A9DED0A0A6B
:10569000B6EE001A31EE401A9DED080A31EE400ACE
:1056A00060EE800A9DED1C0AB0EE001A60EE011A51
:1056B0009DED0B0A9DED0F1A30EE411AB0EE600A17
:1056C00001EE810A8DED180A9DED1D0AF0EE000A2B
:1056D00020EE201A9DED0C0ADDED0E0A30EE600A78
:1056E00061EE000A9DED1C0AB0EE001A60EE011A90
:1056F0009DED100A9DED091A30EE011AB0EE600A18
:1057000001EE810A8DED170A9DED1D0AF0EE000AEB
:1057100020EE201A9DED0F0ADDED0B0A30EE200A77
:1057200061EE000A9DED1C0AB0EE001A20EE011A8F
:105730009DED0D0AF6EE001A71EEC01A9DED0A0AF3
:1057400071EEC01AB0EE600A01EE210A8DED160A64
:105750009DED190A6DEE800A9DED1A0A4EEE400A83
:105760009DED160A2AEE801A9DED170A0BEE401ADF
:1057700030EE810A8DED150A9DED1B0A6EEE000AD2
:105780009DED190A4FEEC00A9DED180A2BEE001A86
:105790009DED160A0BEEC01A30EE810A8DED140A4B
:1057A0009DED1A0A6FEE800A9DED1B0A4DEEC00AB0
:1057B0009DED170A2BEE801A9DED180A0AEEC01A0D
:1057C00030EE810A8DED130AD4ED1B0A9DED150A0A
:1057D00030EE800A84ED1B0AD4ED1C0A9DED140AFC
:1057E00030EE800A84ED1C0AD4ED1D0A9DED130AEB
:1057F00030EE800A84ED1D0AF0EE4C0A9DED150A8C
:10580000B0EE001A41EE000A94ED1B0A9FEDB21AA9
:1058100041EE000AB0EE60CAF0EE6C0A9DED140A8B
:10582000B0EE001A41EE000A94ED1C0A9FEDAA1A90
:1058300041EE000AF0EE60CAF0EE4D0A9DED130A4B
:10584000B0EE001A41EE000A94ED1D0A9FEDA21A77
:1058500041EE000AB0EE60DAF0EE4AEAB0EE49FA44
:105860008DED128AB1EE4A0A20EE0C0A09EE6C0A9E
:1058700008EE4D0AD4ED130AB6EE001A20EE811A96
:10588000F0EE690A40EE010AF0EE609A29EE8C0A09
:10589000B0EE4F9A09EE0D0A9DED128A08EE6C0AE1
:1058A000D4ED130AB6EE001A20EE811AB0EE6EAAFD
:1058B000F0EE4A0A40EE010AB0EE60AA29EEAC0A08
:1058C0000EEECD0A9DED128A08EE0C0AD4ED130AF5
:1058D000B6EE001A20EE811AB0EE4F9AF0EE490AA9
:1058E00040EE010AB0EE609A29EE8D0A0EEEAC0A87
:1058F0000FEE4C0AD4ED130AB6EE001A20EE811A10
:105900009DED128AF0EE480A40EE010AB0EE608A80
:1059100069EEA90A4AEE0A0A49EE090A48EE080A9F
:10592000B0EE600AFEF730FBF0EE408A29EEA80ADE
:1059300084ED170A2AEE280A84ED180A29EE280AAF
:1059400084ED190A28EE280A84ED1A0A94ED191A32
:10595000F0EE001A61EE211A94ED192AB7EE001A42
:1059600001EEC21AD4ED1A1AB0EE002A61EE821AC4
:1059700094ED1A2A01EEC21AF0EE410A94ED181ABB
:10598000F0EE001A21EE211AD4ED191A21EE211A97
:10599000D4ED171AB0EE002A61EE821A94ED1A2A9D
:1059A00001EE821AB0EE410A00F0E6FDDFED4B0A8F
:1059B00020EE200A84ED020A94ED170AF0EE000AA8
:1059C00020EE200AD4ED190A20EE200AD4ED180AA0
:1059D000B0EE001A60EE810A94ED1A1A00EEC10AC8
:1059E00010EE101A0846FAF7F1FDCDE902019DED1F
:1059F000020B00F0A5F98DED040B9FED390B53EC74
:105A0000102B9DED040B51EC100BFAF7EDFCCDE9DA
:105A100006019DED060B51EC100BFAF7EAFD00EEC6
:105A2000100A84ED000A94ED180AF0EE000A60EE08
:105A3000200A94ED181AB7EE000A00EEC10AD4ED60
:105A4000190AB0EE001A60EE810A94ED191A00EE00
:105A5000C10A10EE101A0846FAF7B8FDCDE90201A6
:105A600094ED190AF0EE000A20EE200AD4ED1A0A8D
:105A700020EE200AD4ED170AB0EE001A60EE810A7B
:105A800094ED181A00EE810A10EE101A0846FAF783
:105A90009DFDCDE900019DED021B9DED000B00F089
:105AA0006BFC8DED040B9FED0E0B53EC102B9DED5D
:105AB000040B51EC100BFAF797FCCDE906019DEDB4
:105AC000060B51EC100BFAF794FD00EE100A84ED72
:105AD000010A00BFF2E400006F12833AE12E654232
